530        1WA000V1680000000006122640EAST WATERWAY            SPRUANCE BLVD.    NAVAL STATION EVERETT, WA999900000000            47590858122133764000373730919950400000050201600152000011115N000000000A15501000036000015200055002072000000015201589999N0000N0000006777N0362032673N598381002072081624N  N  N              0000170000140000312016                    0N2 0000002688100 Y50000602038    NY          170510BA                 2 09602F60000327376
530        1WA00251680000000003535660LAGOON                   BUSHNELL DRIVE    NUW CENTER KEYPORT       999900000000            47415271122371020015373730919330200000010201600055000011114N000000000P19302000004000005500049000182000000005500589999N0000N0000007667N1158109534N098381000182081624N  N  N              0000140000000000142016                    0N2 0019578700000 Y50000202038    NY          170510BA                 2 05832F60000010556
530        1WA00431680000000006134208JIM CREEK                BLUE MOUNTAIN ROADNAVRADSTA OSO, WA        999900000000            48124374121555927010373730919490100000020201600037000000005N000000000P15206204001000203700229000302000000003700419999N0000N0000006677N0362032664N576381000302081624N  N  N              0000030000620000652016                    0N3 00000011000801Y50000252035    NY          170510BZ                 0 08000F60000012382
530        1WA01501680000000003507695PATROL RD. & BEACH DRIVE FUEL STORAGE FACIL620 M SE OF NEVADA ST. E 999900000000            473403331223306130003737309195401030000202016200410000NNNN5N000000000P11302101003000203700131000363000000003700419999H0440H066066676NN134012035455N8   000100081624Y24N  N  0816        0000000000120000122016                    2N3 00000011000201YN00002420290000NY          170510BZ                 0 06530F60000014883
530        1WA10471610000000003548190DRY DOCK #5              P STREET          PUGET SOUND NAVAL YARD   999900000000            473339851223816520003737319195702000000402012400890001000050000000000K45303000001000008900101000101002000008900919999N0000N000000656NN1272120057N588381000168081624N  N  N              0001240000000001622014                    0N2 0000003000100 Y90000482029    NY          170510BZ                 0 07180F50000009191
530        1WA74541680000000003504105RAVINE                   PERIMETER ROAD    NAVAL SUBMARINE BASE BANG999900000000            47451179122413150007373730919500100000012201620037000100004N000000000K19702000006000003800047000288000000003200379999N0000N0000007667N2137209900N084381000288081624N  N  N              0000080000000000112014                    0N3 00199787000001Y500001420340000NY          170510BA                 1 04031F60000010656
530        1WA74551680000000003504105DRAW                     PERIMETER ROAD    NAVAL SUBMARINE BASE BANG999900000000            47451198122413211007373730919570100000012201620037000100004N000000000K10702000003000003100049000144000000003100379999N0000N0000006677N2330224060N586381000144081624N  N  N              0000050000000000062014                    0N3 0019978700000 Y500001420290000NY          170510BA                 2 07012F60000005328
530        1WA75101680000000003504105WETLAND/NATURAL CK       MAINTENANCE ROAD  .2KM NORTH OF SEC GATE   999900000000            474513951224306860013737309201301000000402014A0055000100005N000000000K15402000003000005500494001164000000005501059999N0000N0000008778N1999168274N588381000000081624N  N  N              0000000000060000082014                    0N3 00000030000101Y800004820340000NY          170510BZ                 0 09500G70000122220
530        1WA76401680000000003504105DRAINAGE DITCH           MAINTENANCE ROAD  .65KM NE OF STURGEON ST  999900000000            47433189122435646160373730919650100000010201400024000100005N000000000K15303000001000002600082000088000000002600309999N0000N0000006645N1155109300N068381000122081624Y24N  N  0816        0000220000000000222014                    0N3 0000003000010 Y300001220340000NY          170510BA                 1 02111P40000002640
530        1WA78111800000000003504105CATTAIL LAKE DAM         AMBERJACK AVENUE  .32KM SE OF N BOUNDRY RD 999900000000            474609391224228530073737309201202000000202014A0098000011115N000000000A15504000001000009800290000308000000009801079999N0000N0000008888N1818138788N588381000000081624N  N  N              000000000000000000                        0N2 00000026NN000 Y800002520350000NY          170510BZ                 0 10000G80000032956
530       11WC00541880000000002500000WEST CANAL               MAINTENANCE ROAD  WEST CANAL               999900000000            4656495211939690000132569091956020000003020172004900001NNN50000000000P15101000001000004900092000092000000004900559999N0000N0000007778N1304118353N198   000000031724N  N  N              000000000000000000                        0N2 0000001000000 Y80000302037    NY          180516BA                 2 07032G70000005060
530       11WC01481880000000002500000West Canal               FARM ACCESS       West Canal W26C Station 6999900000000            4715543911943517600132669092004010000005020180006100000NNN50000000000A15302000001000006100076000092000000005800619999N0000N0000005557N5   5   *4N598   000000021824N  N  N              000000000000000000                        0N1 0000001000100 Y60000502038    NY          180516BZ                 0*08700F50000005612
530       11WC01491880000000002500000WEST CANAL, LATERAL W26C FARM ACCESS       WEST CANAL LATERAL W26C, 999900000000            4715517211944199500132669092016010000003020165006400001NNN50000000000A15302000001000006100088000095002002005700619999N0000N0000009898N1534132074N595   000000111624N  N  N              000000000000000000                        0N3 0000001100100 Y80000302036    NY          180516BZ                 0 09190G80000005795
530       11WC01501880000000002500000WEST CANAL, LATERAL W26C FARM ACCESS       WEST CANAL LATERAL W26C, 999900000000            4715459911944524100132669092015010000005020160006100000NNN50000000000A15302000001000006100085000091000000006100619999N0000N0000008998N1532120355N594   000000021624N  N  N              000000000000000000                        0N3 0000001000100 Y80000502036    NY          180516BZ                 0 08230G80000005551
530       11WC01511880000000002500000WEST CANAL, LATERAL W26C FARM ACCESS       WEST CANAL LATERAL W26C, 999900000000            4715452711945122900032669091957010000002020160005200000NNN50000000000A15302000001000005200084000097000000005200529999N0000N0000008858N5   5   *3N593   000000031624N  N  N              000000000000000000                        0N3 0019941000100 Y90000202036    NY          170525BA                 2*07832F50000005044
530       11WC01521880000000002500000WEST CANAL, LATERAL W26C FARM ACCESS       WEST CANAL LATERAL W26C, 999900000000            4715419811946241900032669091956010000002020160006100000NNN50000000000A15302000001000006100078000086000000006100619999N0000N0000008858N5   5   *5N595   000000031624N  N  N              000000000000000000                        0N3 0019941000100 Y90000202036    NY          170525BZ                 0*08800F50000005246
530       11WC01531880000000002500000West Canal W26C Lateral  Farm Access       West Canal W26C Lateral, 999900000000            4715423111946435300232669091956010000002020161004500000NNN50000000000A15302000001000005900077000092001001005900629999N0000N0000009987N5   5   *4N596   000000021624N  N  N              000000000000000000                        0N1 0020071000000 Y80000202036    NY          170525BZ                 0*09800G80000005704
530       11WC01551880000000002500000West Canal W26C Lateral  Farm Access       West Canal W26C Lateral S999900000000            4715405511947220500132669091987010000001020180004600001NNN50000000000A15302000001000003900068000073002002003900439999N0000N0000007888N5   5   *4N596   000000021824N  N  N              000000000000000000                        0N3 0000001000000 Y80000102038    NY          180516BZ                 0*08300G70000003139
530       11WC01571880000000002500000WEST CANAL               MAINTENANCE ROAD  WEST CANAL LATERAL W26C, 999900000000            4715490311948403500632569091951010000000520179004900001NNN50000000000A15101000001000004500061000080002002004500499999N0000N0000008888N1729143786N594   000000111724N  N  N              000000000000000000                        0N3 0020142100300 Y80000052037    NY          180516BZ                 0 08550G80000003920
530       11WC01611880000000002500000West Canal W26C lateral  Farm Access       West Canal W26C Lateral a999900000000            4715425811949219200132669092000020000005020180005500000NNN50000000000A15302000001000006700066000083000000006700679999N0000N0000007987N5   5   *5N598   000000021824N  N  N              000000000000000000                        0N2 0000001000000 Y80000502038    NY          180516BZ                 0*09900G70000005561
530       11WC01671880000000002500000West Canal DW229 Wastewa Farm Access/MainteWest Canal DW229 Wasteway999900000000            4715138011946582000332569092010010000001020189004900001NNN50000000000A15504000001000004300108000112000000004300499999N0000N0000008888N1568134186N598   000000021824N  N  N              000000000000000000                        0N3 0000002000000 Y80000102038    NY          180516BZ                 0 08500G80000005488
530       11WC01811880000000002500000WINCHESTER WASTEWAY      SPILLWAY ACCESS   NR WINCHESTER, WA        999900000000            4715886011941511000732569091948010000000520150004301001NNN50000000000A15101000002000004300098000099050004004300979999N0000N0000008888N1395123766N598   000000031548N  N  N              000000000000000000                        0N3 0000001000000 Y80000052035    NY          180516BZ                 0 07670G80000009603
530       11WC01851880000000002500000WEST CANAL               MAINTENANCE ROAD  DRY COULEE SIPHON 1 OUTLE999900000000            4724505111923379400132569091946010000000520160004000001NNN50000000000A15219000001000009100080000088004000000000009999N0000N000000NNN88149912997NN598   000000111624N  N  N              000000000000000000                        0N3 000000NNNN000 Y80000052036    NY          180516BZ                 0*09870G80000003520
530       11WC01861880000000002500000WEST CANAL               MAINTENANCE ROAD  Dry Coulee Siphon 2 Inlet999900000000            4724395611924228000136969091946010000000520160004000001NNN50000000000A15219000001000004000080000088004000000000009999N0000N000000NNN88184515078NN594   000000111624N  N  N              000000000000000000                        0N3 000000NNNN000 Y90000052036    NY          180516BZ                 0*09800G80000003520
530       11WC01871880000000002500000WEST CANAL               MAINTENANCE ROAD  Dry Coulee Siphon 2 Outle999900000000            4724339011924150600136969091946010000000520160004000001NNN50000000000A15219000001000005000080000088004000000000009999N0000N000000NNN88149912997NN596   000000111624N  N  N              000000000000000000                        0N3 000000NNNN000 Y90000052036    NY          180516BZ                 0*09870G80000003520
530       11WC02011880000000002500000WEST CANAL               MAINTENANCE ROAD  Frenchman Hills WW, 5 mi 999900000000            465827591192544720253256909200802000000102017000820000111150000000000A15019000005000008500140000140000000008500859999N0000N000000NNN881999199987N598   000000111724N  N  N              000000000000000000                        0N2 000000NNNN000 Y80000102037    NY          180516BZ                 0 10000G80000011900
530       11WC02081880000000002500000West Canal DW224 Wastewa Farm Access       West Canal DW224 Wasteway999900000000            4715157511939406719932669092006010000000520170008000000NNN50000000000A15701000001000005000070000080002002005000509999N0000N0000006699N5   5   *3N596   000000111724N  N  N              000000000000000000                        0N1 0000008000000 Y90000052037    NY          180516BA                 2*07972F60000004000
530       11WC02311880000000002500000WEST CANAL               MAINTENANCE ROAD  West Canal Lateral 35.9D,999900000000            4713474011957390900132569091968010000001020170004000000NNN50000000000P15702000001000004500083000092002002004500499999N0000N0000007788N2191213546N298   000000111724N  N  N              000000000000000000                        0N3 0000008NNN000 Y80000102037    NY          180516BZ                 0 05880G70000004508
530       11WC02341880000000002500000DW231 WASTEWAY           MAINTENANCE ROAD  DW231 WASTEWAY, STATION 5999900000000            4715203411948394000232569091951010000000320179005000001NNN50000000000A15101000001000004500088000098002002004500499999N0000N0000008888N3503332686N596   000000111724N  N  N              000000000000000000                        0N3 0020152100300 Y80000032037    NY          180516BZ                 0 08750G80000004802
530       11WC02461880000000002500000West Canal W27 Lateral   Farm Access       West Canal W27 Lateral St999900000000            4714469011942508600232669091998010000000520170006200000NNN50000000000A15302000001000006200072000082000000006200629999N0000N0000008777N5   5   *5N595   000000111724N  N  N              000000000000000000                        0N3 0000001000000 Y80000052037    NY          180516BZ                 0*09800G70000005084
530       11WC02501880000000002500000WEST CANAL W39.9         MAINTENANCE ROAD  West Canal W39.9 Station 999900000000            4709132711951110400132669091950010000001020161005000000NNN50000000000A15702000002000004900058000120000000004900499999N0000N0000007587N5   5   *3N598   000000111624N  N  N              000000000000000000                        0N3 0020158000000 Y80000102036    NY          170525BZ                 0*07852F50000005880
530       11WC02511880000000002500000WEST CANAL W39.9         MAINTENANCE ROAD  West Canal W39.9 Station 999900000000            4708584411951110900132669092016010000001020165004600000NNN50000000000A15302000001000004200094000119000000004200439999N0000N0000008877N5   5   *5N598   000000111624N  N  N              000000000000000000                        0N3 0000001000000 Y80000102036    NY          170525BZ                 0*08400G70000005117
530       11WC02521880000000002500000WEST CANAL W39.9         MAINTENANCE ROAD  West Canal W39.9 Station 999900000000            4708353911951111300132669091950020000002020168006000000NNN50000000000A15302000001000005700119000143001001005700599999N0000N0000006677N5   5   *4N598   000000111624Y24N  N  1116        000000000000000000                        0N2 0020035000000 Y80000202036    NY          170525BZ                 0*09800F60000008437
530      11ELC00041880000000002500000EAST LOW CANAL           OSBORNE FARM ROAD NR STRATFORD, WA         999900000000            4718169611913218100032569091950010000000120170004300001NNN50000000000P15310000001000003200275000277002002003200379999N0000N0000007678N1083105032N394   000000111724Y24N  N  1117        000000000000000000                        0N3 0000008000000 Y80000012037    NY          180516BA                 2 02832F60000010249
530      11ELC00081880000000002500000ROCKY COULEE WASTEWAY    MAINTENANCE ROAD  ROCKY COULEE WASTEWAY    999900000000            4712645011910535000232569091949020000001520150005500001NNN50000000000A15101000002000005500043000104000000006100699999N0000N0000007888N1598133285N596   000000111548N  N  N              000000000000000000                        0N2 0000001000000 Y80000152035    NY          180516BZ                 0 09900G70000007176
530      11ELC00091880000000002500000ROCKY COULEE DIVERSION   STA 19+00 ACCESS  NR MOSES LAKE, WA        999900000000            4711529611910429800032569091948010000000120170004300001NNN50000000000P15310000001000003200244000246002002003200379999N0000N0000006778N1111106732N096   000000111724Y24N  N  1117        000000000000000000                        0N3 0000008000000 Y80000012037    NY          180516BA                 2 03462F60000009102
530      11ELC00131880000000002500000ROCKY COULEE WASTEWAY    MI 2.8 THOMPSON   NR MOSES LAKE,WA         999900000000            471051601191264800003266909195001000000102017C004300001NNN50000000000P15310000001000003200244000246002002003200419999N0000N0000005776N1126107532N294   000000111724Y24N  N  1117        000000000000000000                        0N3 0000008000000 Y80000102037    NY          180516BA                 2 03362F50000010086
530      11ELC00201880000000002500000ROCKY COULEE DRAIN WASTE FARM FIELD ACCESS NR MOSES LAKE, WA        999900000000            4703139011913352600032569091948010000000520170004300001NNN50000000000P15310010001000003200122000124002002003200379999N0000N0000005565N1189111342N094   000000111724Y24N  N  1117        000000000000000000                        0N3 0000008000000 Y60000052037    NY          180516BA                 2 03452F50000004588
530      11ELC00431880000000000100000SCOOTENEY WASTEWAY       MAINTENANCE ROAD  SCOOTENEY WASTEWAY       999900000000            4645302011858441919932569091953010000000220182004300001NNN50000000000A15101000001000004300072000080000000004900559999N0000N0000007778N1420125263N595   000000021824N  N  N              000000000000000000                        0N3 0000001000000 Y80000022038    NY          180516BA                 2 07622G70000004400
530      11ELC00511680000000002500000CRAB CREEK SIPHON NO. 1  HEADWORKS MAINTENACrab Ck Siphon No. 1 Inle999900000000            472519421192280100043256909194702000000102017C005200001NNN50000000000A15119000001000005200068000068004000005200839999N0000N000000NNN881730143883N598   000000111724N  N  N              000000000000000000                        0N2 0000001NNN000 Y80000102037    NY          180516BA                 2 08852G80000005644
530      11ELC00521680000000002500000East Low Canal - Crab Ck Canal Maintenance Crab Ck Siphon No.1 Outle999900000000            4724526011921461000232569091947010000000520150003700001NNN50000000000A15119000001000004500068000068000004008301069999N0000N000000NNN881730143886N593   000000111548N  N  N              000000000000000000                        0N3 000000NNNN000 Y80000052035    NY          180516BA                 2 09602G80000007208
530      11ELC00531680000000002500000East Low Canal - Crab Ck Canal Maintenance Crab Ck Siphon No.2 Inlet999900000000            4724314611921287800232569091947010000000520150003700001NNN50000000000A15119000001000004500068000068004000008301069999N0000N000000NNN881999190786N593   000000111548N  N  N              000000000000000000                        0N3 000000NNNN000 Y80000052035    NY          180516BA                 2 09602G80000007208
530      11ELC00541680000000002500000East Low Canal - Crab Ck Canal Maintenance Crab Ck Siphon No.2 Outle999900000000            4724208311921201219932569091947010000000520150003700001NNN50000000000A15119000001000004500068000068000004008300839999N0000N000000NNN881999190786N593   000000111548N  N  N              000000000000000000                        0N3 000000NNNN000 Y80000052035    NY          180516BA                 2 09102G80000005644
530      11ELC00551680000000002500000East Low Canal - Brkn Rk Canal Maintenance Broken Rock Siphon No.1 I999900000000            4719236311914386900032569091947010000000220180003700001NNN50000000000A15119000001000004500068000068000000010601069999N0000N000000NNN881730143889N594   000000021824N  N  N              000000000000000000                        0N3 000000NNNN000 Y80000022038    NY          180516BZ                 0 09800G80000007208
530      11ELC00561680000000002500000East Low Canal - Brkn Rk Canal Maintenance Broken Rock Siphon No.2 O999900000000            4719206711914309800032569091947010000000120160003700001NNN50000000000A15119000001000004500068000068000000010601069999N0000N000000NNN881999190789N594   000000021648N  N  N              000000000000000000                        0N3 000000NNNN000 Y80000012036    NY          180516BZ                 0 09800G80000007208
530      11ELC00661600000000002500000East Low Canal           East Low Canal    Weber Branch Siphon      999900000000            4705546711903443000032569091950010000000120160005500001NNN50000000000A15119000002000000000046000109000000004900499999N0000N000000NNN881999199983N594   000000021648N  N  N              000000000000000000                        0N1 000000NNNN000 Y80000012036    NY          180516BA                 2 08652G80000005341
530      11ELC00671600000000002500000East Low Canal           East Low Canal    Weber Branch Siphon      999900000000            4705492211902217700032569091950010000000120160005200001NNN50000000000A15119000002000000000046000109000000004900499999N0000N000000NNN881946156883N594   000000021648N  N  N              000000000000000000                        0N1 000000NNNN000 Y80000012036    NY          180516BA                 2 08652G80000005341
530      11ELC00681600000000002500000East Low Canal           East Low Canal    Weber Coulee Siphon Inlet999900000000            4705347111901455000132569091950010000000120160004300001NNN50000000000A15119000002000000000046000109000000004900499999N0000N000000NNN881999199983N594   000000021648N  N  N              000000000000000000                        0N1 000000NNNN000 Y80000012036    NY          180516BA                 2 08652G80000005341
530      11ELC00691600000000002500000East Low Canal           East Low Canal    Weber Coulee Siphon Outle999900000000            4704508611900490900132569091950010000000120160005500001NNN50000000000A15119000002000000000046000109000000004900499999N0000N000000NNN881946156883N594   000000021648N  N  N              000000000000000000                        0N1 000000NNNN000 Y80000012036    NY          180516BA                 2 08652G80000005341
530      11ELL00011880000000002500000EAST LOW CANAL EL 20 LAT Nuss Farm Road    NR MOSES LAKE, WA        999900000000            471055561191427600003256909195701000000052017C004300001NNN50000000000P15310000001000003200122000124002002003200379999N0000N0000005678N1210112642N094   000000111724Y24N  N  1117        000000000000000000                        0N3 0000008700000 Y60000052037    NY          180516BA                 2 04732F50000004588
530      11ELL00461880000000000100000East Low 68 Mile Lateral FARM ACCESS       EL 68 Station 171+00     999900000000            4653436011907327200232669091953020000002020178005500001NNN50000000000A15303000001000006400145000165000000006400649999N0000N0000006758N1442126452N593   000000031724N  N  N              000000000000000000                        0N1 0000008000000 Y50000202037    NY          180516BA                 2 07622F50000010560
530      11ELL00511880000000000100000East Low 68 Mile Lateral FARM ACCESS       EL 68 Mile Lateral Statio999900000000            4651622011909139100232669091953010000000520151003100000NNN50000000000A15302000002000003000076000152001001003000319999N0000N0000006678N5   5   *2N595   000000111724N  N  N              000000000000000000                        0N3 0019966000000 Y90000052036    NY          180516BA                 2*08002F60000004712
530      11MC-00031880000000002500000MAIN CANAL               MAINTENANCE ROAD  MAIN CANAL 3.88          999900000000            4733521111918374019936969091977020000001020155008000001NNN50000000000A15101000002000008000139000334000000007600919999N0000N0000008788N1601136076N596   000000021548N  N  N              000000000000000000                        0N2 0000001100000 Y80000102025    NY          180516BZ                 0 09490G70000030394
530      11MC-00041880000000002500000MAIN CANAL               MAINTENANCE ROAD  MAIN CANAL 3.88          999900000000            4733537511917578619936969091977020000001020155017000001NNN50000000000A15101000001000017000122000149000000015801839999N0000N0000008888N1999197889N593   000000021548N  N  N              000000000000000000                        0N2 0000001100000 Y80000102025    NY          180516BA                 2 08592G80000027267
530      11MC-00131680000000002500000MOSES LAKE SPILLWAY      MAINTENANCE ROAD  MOSES LAKE SPILLWAY      999900000000            470447741192014800963256909196202000000502015000720000111050000000000P15201000005000007200030000171000000006700729999N0000N0000007888N1346120765N298   000000031724N  N  N              000000000000000000                        0N2 0000001000000 Y80001002035    NY          180516BZ                 0 08500G70000012312
530      11MC000161880000000002500000DRY FALLS DAM MAIN CANAL STATE HIGHWAY 2   NR COULEE CITY, WA       999900000000            473717801191845000803696909194702000023002017001220000111150000000000A15119000006000012200043000266000000000000009999N0000N000000NNN77599959997NN598   000000031724N  N  N              000000000000000000                        0N2 000000N600300 Y90025002037    NY          180516BZ                 0*09110G70000032452
530      11MC000201880000000002500000DRY FALLS DAM MAIN CANAL POWERPLANT ACCESS NR COULEE CITY, WA       999900000000            4737137011918560000036969091947010000000120170004900001NNN50000000000A15119000006000004900043000265000000000000009999N0000N000000NNN87599959997NN598   000000031724N  N  N              000000000000000000                        0N3 0000001800000 Y90000012037    NY          180516BZ                 0*10000G70000012985
530      11PEC00021880000000002500000POTHOLES CANAL           MAINTENANCE ROAD  4.8 MILES SO. OF RT262   999900000000            4655204011911450303032569091950010000001520162003300001NNN50000000000P15310000001000003300212000213000000003300379999N0000N0000006778N2145211242N196   000000041624Y24N  N  0416        000000000000000000                        0N3 0000008000000 Y80000152036    NY          170525BA                 2 04722F60000007881
530      11PEC00371880000000002500000WAHLUKE BRANCH CANAL     WAHATIS PEAK ROAD (White Bluffs Wasteway - 999900000000            4645562511925771000032569091967020000000120174004300001NNN50000000000A15501000002000004300151000308003003008100869999N0000N0000007578N1805148356N595   000000021724N  N  N              000000000000000000                        0N2 0000002000000 Y80000012037    NY          180516BZ                 0 08800F50000026488
530      11PEC00381880000000002500000WAHLUKE BRANCH CANAL     WAHATIS PEAK ROAD NR MATTAWA, WA           999900000000            4645572911928224200032569091967020000000320174004301701NNN50000000000A15501000002000008100150000306003003008100869999N0000N0000008888N1805148386N598   000000021724N  N  N              000000000000000000                        0N2 0000002000000 Y80000032037    NY          180516BZ                 0 10000G80000026316
530      11PEC00621880000000002100000ELTOPIA BRANCH CANAL     SAGEMOOR PUMP PLNTNR RICHLAND, WA          999900000000            4620155911914998000032569092002010000001020172004300001NNN50000000000A15504000001000004300105000107000000004600489999N0000N0000008888N1439126467N594   000000021724N  N  N              000000000000000000                        0N3 0000002600000 Y80000102037    NY          180516BZ                 0 08200G80000005136
530      11PEC00661880000000002100000Potholes Canal           MAINTENANCE ROAD  Ringold Wasteway         999900000000            4630300711910432300332569091952010000001520150004900001NNN50000000000A15201000005000000000069000309000000004900739999N0000N0000007777N1500129973N598   000000021548N  N  N              000000000000000000                        0N3 0000001000000 Y80000152035    NY          180516BA                 2 08722G70000022557
530      11PECL0451880000000002500000PRIEST RAPIDS LATERAL    0.5 'SW' ROAD     NR MATTAWA, WA           999900000000            4645156911949129800032569091983010000001020180004300001NNN50000000000A15522000001000004300111000114003003004700499999N0000N0000008888N5   5   *7N595   000000021824N  N  N              000000000000000000                        0N1 0000002000000 Y80000202038    NY          180516BZ                 0*08900G80000005586
530      11PECL0561880000000002100000ESQUATZEL DIVERS CHANNEL CHUTE ACCESS      NR PASCO WA              999900000000            4621301611915419000032569091958010000000520170004300001NNN50000000000A15101000001000003700064000067003003003700439999N0000N0000008788N1492129474N595   000000021724N  N  N              000000000000000000                        0N3 0000001000300 Y80000052037    NY          180516BZ                 0 08030G70000002881
530      11PECL0621880000000002100000ESQUATZEL DIVERS CANAL   HEADWORKS SERVICE NR PASCO WA              999900000000            4621552211905180900032569091957010000000120174004300001NNN50000000000A15104000001000003700104000115003030003700439999N0000N0000008888N1370122264N594   000000021724N  N  N              000000000000000000                        0N3 0000001000300 Y80000012037    NY          180516BZ                 0 07040G80000004945
530      13BUMSW011880000000007700000BUMPING LAKE SPILLWAY    MAINTENANCE ROAD  BUMPING LAKE             999900000000            4652237412117568019936969091973010000003020170004302101NNN50000000000P15502000001000004300215000236000000004300479999N0000N0000005677N1310118656N295   000000091724N  N  N              000000000000000000                        0N3 0000001000000 Y90000302037    NY          180516BZ                 0 05990F50000011092
530      13CHA2.001880000000000500000CHANDLER CANAL           BUNN ROAD         BUNN RD AT CHANDLER CANAL999900000000            4613251011944131001636969091930010000005020160004600001NNN50000000000P15702000003000004600085000251000000004600499999N0000N0000007677N2243217357N195   000000121624N  N  N              000000000000000000                        0N3 0020078000000 Y80000502036    NY          180516BZ                 0 06760F60000012299
530      13RID-WW31880000000007700000ROZA ID WASTEWAY NO 3    FARM ACCESS       NR PARKER HEIGHTS, WA    999900000000            4627452012022169000032569091955010000001020161004600501NNN50000000000P15702000001000004600080000082002002004900509999N0000N0000008577N2063204433N098   000000111624N  N  N              000000000000000000                        0N3 0000008700100 Y90000102036    NY          180516BA                 2 02952F50000004100
530      13RID23.91880000000007700000ROZA ID MAIN CANAL       ALLWARDT FARM ROADDESMARAIS RD, YAKIMA     999900000000            4632124012019265200032569091937020000001520160005401701NNN50000000000P15302000001000005400113000114001001005600599999N0000N0000007777N2294218054N098   000000111624N  N  N              000000000000000000                        0N2 0019998700  0 Y80000152036    NY          180516BZ                 0 07920G70000006726
530      13ROZPPFB1880000000007700000WASTEWAY NO. 2           REST HAVEN ROAD   ROZA ID POWERPLANT, YAKIM999900000000            463710111202838530003696909193701000000102016500310000101150000000000A15522000001000003100069000071006006003100379999N0000N0000007777N2450232472N595   000000111624N  N  N              000000000000000000                        0N3 0019652100000 Y80000102036    NY          170525BA                 2 08002G70000002627
530      13TIEWCAT1880000000007700000WILDCAT CREEK, WA        DAM ACCESS        TIETON DAM, WA           999900000000            4639540812107289100036969091998020000001020165008202201N1150000000000A15501000001000008200137000146002002008200859999N0000N0000005544N1363121846N595   000000091712N  N  N              000000000000000000                        0N2 0000002100000 Y20000102037    NY          180516BA                 1 05981P40000012410
530      1WA2033601680000000002978155DRAINAGE BASIN           E. PIONEER WAY    EAST OF OAK HARBOR       999900000000            481750841223628130003737309200601000000302016500390000000050000000000A59310000001000004200366000366003003004200609999N0000N0000007765N2467232965N576381000366081624N  N  N              0000100000260000362016                    0N3 00000030001001Y70000352038    NY          170510BZ                 0 07600F60000021960
530     11PECL00241880000000002100000Potholes East Canal      FARM ACCESS       Potholes East Canal Later999900000000            4628185111911442500332669091952010000001020181006500001NNN50000000000P15702000001000006700095000104000003006400659999N0000N0000005568N2157210845N195   000000021824N  N  N              000000000000000000                        0N3 0000008000000 Y90000102038    NY          180516BZ                 0 05230F50000006760
530     11PECL01091880000000002100000Potholes East Canal Late FARM ACCESS       Block 19, PE. 46AWW Stati999900000000            4630572511911434100532569091955010000001020171004900000NNN50000000000P15703000001000004500088000088002002004500499999N0000N0000007788N1165111346N496   000000021724N  N  N              000000000000000000                        0N3 0020098700000 Y80000102037    NY          170525BZ                 0 05400G70000004312
53000000000000P0011610002600002746405NORTH FORK MOCLIPS RIVER IRR BIA RTE 26    3.2 KM N.E. OF MOCLIPS   99990004000000000000000047151006124104107002362620719760200000350201550098015011015N000000000A15502000002000009800296000610000000009801089999N0000N0000007775N5427532077N586   000000031724N  N  N              0000000000000000002017   0                0N2 0100001100150 Y800070020310000NY          180613BZ                 0 09990G70000065880
53000000000000P0021610000200002746405MOCLIPS RIVER            IRR BIA RTE 2     3 KM NE OF MOCLIPS       99990000500000000000000047145870124102660003362620919650200000008201450073030000005N000000000A15102000004000007300076000307007007007300879999N0000N0000006765N5427532066N578   000000031724N  N  N              0000000000000000002017   0                0N2 0100001100000 Y500001020310000NY          180613BZ                 0 09690F60000026709
53000000000000P0041610002600002746405NORTH MOCLIPS RIVER      IRR BIA RTE 26    15 KM N.E. OF MOCLIPS    99990013800000000000000047174120124035840005362620719650200000350201300073000000115N000000000B15104000002000007300076000155007007007300829999N0000N0000006745N1136108225N088311001550031724N  N  N              0000000000000003402017   0                0N2 0100001100500 Y500070020310000NY          180613BA                 1 03061P40000012710
53000000000000P0051610002600002748330RED CREEK                IRR BIA RTE 26    23 KM NE OF MOCLIPS      99990021700000000000000047201699124015787014362620719640200000350201500091000001105N000000000B15104000003000007300076000232005005007300839999N0000N0000006745N1091105425N058311000300031724N  N  N              0000000000000006002017   0                0N2 0100001100500 Y500070020310000NY          180613BA                 1 02311P40000019256
53000000000000P0061610002600002748330ELK CREEK                IRR BIA RTE 26    26 KM NE OF MOCLIPS      99990027200000000000000047205120124002782015362620719640200000246201450091000001115N000000000A15102000003000007300076000232007007007400879999N0000N0000006765N5427532065N578   000000031724N  N  N              0000000000000000002017   0                0N2 0100001100050 Y500070020310000NY          180613BZ                 0 08920F60000020184
53000000000000P0081610000200002746405NORTH FORK MOCLIPS RIVER IRR BIA RTE 2     4 KM N.E. OF MOCLIPS     99990001000000000000000047151010124102770018362620919840200000150201550110000011105N000000000A15502000001000008500296000305005005008500959999N0000N0000007775N5427532076N575   000000031724N  N  N              0000000000000000002017   0                0N2 0100001100400 Y800030020310000NY          180613BZ                 0 09380G70000028975
53000000000000P0091610002600302748330COOK CREEK               IRR BIA RTE 26    25.7 KM NE COPALIS X-ING 999900257000000000000000472127911235926620723626207200202000006002015900980000111150000000000A15504000001000009800364000379023005011001379999N0000N0000007777N5889559677N588   000000031724N  N  N              0000000000000000002017   0                0N2 0100002691250 Y800120020310000NY          180613BZ                 0 09780G70000051923
53000000000000P0121610001800002748330BOULDER CREEK            IRR BIA RTE 18    4 KM S OF AMANDA PARK JCT99990007600000000000000047254131123545129008362620919800200000050201550084000011105N000000000A15505000001000007900219000229004004007900829999N0000N0000006776N5427532076N588   000000031724N  N  N              0000000000000000002017   0                0N2 0100002600500 Y800010020310000NY          180613BZ                 0 09990F60000018778
53000000000000P0131610000200002770175RAILROAD CREEK           IRR BIA RTE 2     16 KM NORTH OF MOCLIPS   99990013200000000000000047210355124091701018362620919840200000150201550079026011005N000000000A15502000001000007900216000226005005008500959999N0000N0000007776N5427532076N586   000000031724N  N  N              0000000000000000002017   0                0N2 0100001100200 Y800030020310000NY          180613BZ                 0 09880G70000021470
53000000000000P0201610002600002746405HALL CREEK               IRR BIA RTE 26    15 KM N.E. OF MOCLIPS    999900116000000000000000471806801240341000053626207199402000003502015500850050NN015N000000000A15919000003000009300015000065000000008500859999N0000N000000NNN455427532056N578   000000031724N  N  N              0000000000000000002017   0                0N2 010000NNNN150 Y800070020310000NY          180613BZ                 0 08880F50000005525
53000000000000P0301610000800304564785SKOBOB CREEK             IRR BIA RTE 8     SKOKOMISH TRIBAL CENTER  99990000500000000000000047192484123085232004362620819980200000500201550095000011005N000000000A55504000001000008500293000305020001008501149999N0000N0000007677N5695541765N534   000000031724N  N  N              0000000000000000002017   0                0N2 0100002681100 Y700100020310000NY          180613BA                 2 08692F60000034770
53000000000000P0611610000100000948295WA-ATCH RIVER            IRR BIA RTE 1     4 KM S.W. OF NEAH BAY    99990009500000000000000048204830124394610003362620919610200000300201550060000011005N000000000A15102000007000007200076000536004004007200809999N0000N0000006577N5486536954N568   000000031709N  Y60N      1211    0000000000000000002017   0                0N2 0100001100050 Y500040020310000NY          180613BZ                 0 07540F50000042880
53000000000000P0711610000100900948295SOOES   RIVER            IRR BIA RTE    1  8 KM  S.W.  OF  NEAH  BAY99990013800000000000000048184220124392240199362620919610200000300201530058000011005N000000000B15502102002000405800181000689004004007200819999N0000N0000007777N5320524064N285   000000031724N  Y60N      1211    0000000000000000002017   0                0N2 0120012101150 Y500036020310000NY          180613BZ                 0 06880G70000055809
53000000000000P0821610110200000948295WA-ATCH RIVER            BIA Route 1102    3 KM SW OF NEAH BAY      999900031000000000000000482101601243844000023626209201002000002672012001190000111150000000000P55502000003000012100184000576000000012101309999N0000N0000007777N3695353579N588   000000031724N  N  N              0000000000000000002017   0                0N2 0100002600050 Y500031820320000NY          180613BZ                 0 10000G70000074880
53000000000000P1141610009402003971960TOPPENISH CREEK          IRR BIA RTE 94    7.2 KM SOUTH OF TOPPENISH99990001100000000000000046185240120185360003362620819750200000050201550067000010015N000000000A15505000001000009100190000198005005009101019999N0000N0000008886N5432532487N576   000000031724N  N  N              0000000000000000002017   0                0N2 0100002600050 Y500010020320000NY          180613BZ                 0 09900G80000019998
53000000000000P1151610009404003971960TOPPENISH CREEK          IRR BIA RTE 94    7.2 KM SOUTH OF TOPPENISH99990001300000000000000046185090120185360003362620819750200000050201550067000010105N000000000A15505000001000009100192000198005005009101019999N0000N0000007776N5432532477N566   000000031724N  N  N              0000000000000000002017   0                0N2 0100002600050 Y500010020310000NY          180613BZ                 0 09900G70000019998
53000000000000P1161610014006003978365TOPPENISH CREEK          IRR BIA RTE 140   1.6KM SOUTH OF WHITE SWAN99990059700000000000000046200290120435820003362620719860200000400201550090000011115N000000000A15505000002000009800122000250004004009801059999N0000N0000008578N5396527957N378   000000031724N  N  N              0000000000000000002017   0                0N2 0100002600250 Y800080020310000NY          180613BZ                 0 08580F50000026250
53000000000000P1171610012712003978365TOPPENISH CREEK          IRR BIA RTE 127   2.4KM SOUTH OF WHITE SWAN99990014500000000000000046195706120451557004362620819860200000200201550088000011105N000000000A15505000002000009800122000250004004009801059999N0000N0000008877N5420530277N488   000000031724N  N  N              0000000000000000002017   0                0N2 0100002600500 Y500040020310000NY          180613BZ                 0 09890G70000026250
53000000000000P1611610028502003972450BIRD CREEK               IRR BIA RTE 285   19.3 KM NW OF GLENWOOD   99990005500000000000000046070133121252785006362620919980100000030201250033000000005N000000000A15302000001000004000052000061000000004200429900N0000N0000008857N5393528855N576   000000061724N  N  N              0000000000000000002017   0                0N3 0100006700300 Y500006020320000NY          180613BZ                 0 06780F50000002562
53000000000000P2011610002700006516795SPOKANE RIVER TAIL RACE  IRR BIA RTE 27    NEXT TO LITTLE FALLS DAM 99990011300000000000000047494172117551391011362620819720200000400201550075000011015N000000000A15502000003000009100259000772005005009101009999N0000N0000007868N5427532066N586   000000061724N  Y60N      1211    0000000000000000002017   0                0N2 0100001100100 Y800080020310000NY          180613BZ                 0 09970F60000077200
53000000000000P2021610002700006516795SPOKANE RIVER SPILLWAY   IRR BIA RTE 27    BESIDE LITTLE FALLS DAM  99990011900000000000000047494750117550300011362620819730200000400201250080000011015N000000000A15502000003000009100305000861005005009101019999N0000N0000006858N5427532056N586   000000061724N  Y60N      1211    0000000000000000002017   0                0N2 0100001100100 Y500080020320000NY          180613BZ                 0 08870F50000086961
53000000000000P2031610001600006516795CHAMOKANE CREEK          IRR BIA RTE 16    11.2 KM SE OF AGENCY     99990001300000000000000047510190117515213013362620819800200000050201450092024011005N000000000A15502000001000009000235000242005005009201019900N0000N0000007777N5427532077N566   000000061724N  N  N              0000000000000000002017   0                0N2 0100002600100 Y600007520310000NY          180613BZ                 0 09890G70000024442
53000000000000P2041610010000606567210CHAMOKANE RIVER          IRR BIA RTE 100   60 M SW INT HWY231/BIA10099990000060000000000000047594060117433952023362620819900200000300201500066000000005N000000000P15302000001000007100194000196000000006600739900N0000N0000006653N1143110734N088371000000061724N  N  N              0000000000000001002017   0                0N2 0100006600150 Y400060020310000NY          180613BA                 2 03482F50000014308
53000000000000P3031610005600004790720NORTH STAR CREEK         IRR BIA RTE 56    16 KM NORTH OF NESPELEM  99990005600000000000000048175944118575626003362620919620100000025201230052000000005N000000000A15102000001000004300076000083004004004300519999N0000N0000007778N5320524066N276   000083061724N  N  N              0000000000000000002017   0                0N3 0100001100300 Y800005020320000NY          180613BZ                 0 07410G70000004233
53000000000000P3111610009800001990704SAN POIL RIVER           IRR BIA RTE 98    16 KM SOUTH OF REPUBLIC  99990000483000000000000048245945118441031016362620819590100000050201500049000000005N000000000A15101000003000099900111000298004004004300489900N0000N0000006643N1523131346N576381000500061724N  N  N              0000000000000000572017   0                0N3 0100001000200 Y400010020310000NY          180613BA                 1 05461P40000014304
53000000000000P3121610000600001990704WEST FORK SAN POIL RIVER IRR BIA RTE 6     11 KM S.W. OF REPUBLIC   99990039300000000000000048272247118480629016362620919620200000300201230064000010005N000000000A15104000002000006400076000160004004007300819900N0000N0000006668N5320524065N57635 001600061724N  N  N              0000000000000000502017   0                0N2 0100001100150 Y800060020320000NY          180613BZ                 0 07980F60000012960
53000000000000P3131610006400004790720WEST FORK SAN POIL RIVER IRR BIA RTE 64    13 KM SW OF REPUBLIC     99990012900000000000000048283521118515408024362620919620100000075201230042000000005N000000000B15102000002000004200076000158004004004200499900N0000N0000007756N5320524055N276   000000061724N  N  N              0000000000000000002017   0                0N3 0100001100150 Y800015020320000NY          180613BZ                 0 06190F50000007742
53000000000000P3141610000600004790720GOLD CREEK               IRR BIA RTE 6     21 KM SW OF REPUBLIC     99990013500000000000000048235014118522500008362620919620200000025201430082000000005N000000000B15102000001000007300076000083004004007300819999N0000N0000006774N5320524066N267   000000061724N  N  N              0000000000000000002017   0                0N2 0100001100250 Y800005020320000NY          180613BZ                 0 08410F60000006723
53000000000000P3151610006200004790720GOLD CREEK               IRR BIA RTE 62    23 KM SW OF REPUBLIC     99990004200000000000000048222750118544979003362620919620100000025201250043000000005N000000000A15102000001000004200076000083004004004200499999N0000N0000007768N5324524365N286   000250061724N  N  N              0000000000000000002017   0                0N3 0100001100300 Y800005020320000NY          180613BZ                 0 07350F60000004067
53000000000000P3221610010000001990704NINE MILE CREEK          IRR BIA RTE 100   6 KM NW OF NINE MILE     99990001600000000000000048050436118280300008362620919620200000050201450091000000005N000000000A15102000002000007300076000158004004007300829999N0000N0000006567N5432532456N576   000000061724N  N  N              0000000000000000002017   0                0N2 0100001000100 Y800007520320000NY          180613BZ                 0 08100F50000012956
53000000000000P3321610001400001990704HALL CREEK               IRR BIA RTE 1123  18 KM NW OF SUB-AGENCY   99990000300000000000000048244880118223728064362620919920100000050201260046000000005N000000000A15302000001000004300119000124000000004300449999N0000N0000006763N5365526766N564   000500061724N  N  N              0000000000000000002017   0                0N3 0100006800400 Y300010020320000NY          180613BZ                 0 07520F60000005456
53000000000000P3331610112300001990704SITDOWN CREEK            IRR BIA RTE 1123  25 KM NW OF SUB-AGENCY   99990006900000000000000048241370118273123016362620919930100000050201260046000000005N000000000B15302000001000004300131000134000000004300439900N0000N0000006645N5771546146N37635 001340061724N  N  N              0000000000000001022017   0                0N3 0100006800400 Y300010020320000NY          180613BA                 1 05491P40000005762
53000000000000P3341610112302001990704SITDOWN CREEK            IRR BIA RTE 1123  26 KM NW OF SUB-AGENCY   99990008207000000000000048235267118282311018362620919930100000050201260046000000005N000000000A15302000001000004300119000123000000004300439900N0000N0000006766N5365526766N576   000800061724N  N  N              0000000000000000002017   0                0N3 0100006800400 Y300010020320000NY          180613BZ                 0 07750F60000005289
53000000000000P3351610112300001990704SITDOWN CREEK            IRR BIA RTE 1123  26.9 KM NW OF SUB-AGENCY 99990009000000000000000048233817118285404019362620919930100000050201260049000000005N000000000A15302000001000004300116000123000000004300439999N0000N0000007756N5369527056N57335 000000061724N  N  N              0000000000000000992017   0                0N3 0100006800400 Y300010020320000NY          180613BA                 2 06292F50000005289
53000000000000P3361610007400004790704LITTLE NESPELEM RIVER    IRR BIA RTE 74    4.8 KM E OF COLVILLE AGCY999900002000000000000000480811621185518640153626209199401000000202014500490000NN005N000000000B15319000002000008200035000082000000004900499999N0000N000000NNN462249218753N08535 000000061724N  N  N              0000000000000000772017   0                0N3 010000NNNN050 Y600003020310000NY          180613BA                 2 06902F60000004018
53000000000000P3371610007400004790704LITTLE NESPELEM RIVER    IRR BIA RTE 74    8.1 KM E OF COLVILLE AGCY999900043000000000000000480834551185304761993626209199401000000102014300330100NN005N000000000B15319000002000008700034000085000000003300339999N0000N000000NNN852249218752N07635 000000061724N  N  N              0000000000000000552017   0                0N3 010000NNNN100 Y400002020310000NY          180613BA                 2 04732F50000002805
53000000000000P3381610006600004748550LOONEY CREEK             IRR BIA RTE 66    N.W. END OF BIA RT. 66   99990000300000000000000048275328119020014065362620920010100000050201560033000000005N000000000A15302000001000004300148000153000000004300439999N0000N0000006764N1574142166N578   000000061724N  N  N              0000000000000000002017   0                0N3 0100006700250 Y800004020310000NY          180613BZ                 0 08170F60000006579
53000000000000P3391610116700004790704NESPELEM RIVER           IRR BIA RTE 1167  0.6 KM WEST OF AGENCY    99990000600000000000000048080968118590771007362620719570200000250201550072000000005N000000000A15101000003000007300114000320004004007300819999N0000N0000006675N5427532065N578   000000061724N  N  N              0000000000000000002017   0                0N2 0100001100150 Y800050020310000NY          180613BZ                 0 09130F60000025920
53000000000000P3401610011600001190704STEPSTONE CREEK          IRR ROUTE 116     13 KM NORTH OF NESPELEM  999900045000000000000000482018481185840320403626209199802000000502012900700000000050000000000A15319000001000007000081000085000000007000709999N0000N000000NNN854659450755N596   000000061724N  N  N              0000000000000000002017   0                0N2 010000N8N0300 Y500010020320000NY          180613BZ                 0 08490F50000005950
53000000000000P3421610000300001912140LAKE ROOSEVELT           BIA IRR RTE 3     2.2 MI S OF GIFFORD, WA  9999000080000000000000004816419011808148109736262092011010000030020129006100001NNN50000000000A15402302001000103800192000227000000003800559999N0000N0000009988N1521140182N598   000000061724N  N  N              0000000000000000002017   0                0N3 0100003002200 Y800035020320000NY          180613BZ                 0 07852G80000012485
5300000000L14393921640000000004300000CRAB CREEK               BLM ROAD #980021320.8 miles W of Odessa on 999900022370            472044021184527001993686809197001000000102015500490000100050000000000A15702000005000004300081000315000000004300499999N0000N0000006745N1450138046N576   000000041724N  N  N              0000150000010000162017                    0N3 0000008700100 Y30000152035    NY          180516BA                 1 05081P40000015435
5300000000L14393931640000000007500000ROCK CREEK               BLM ROAD #9826-0-07.5 miles S of Lamont on 999900040060            470050441175639841993686809195001000000012015500460000100020000000000P15310702001000503800198000664000000003800469999N0000N0000006667N1341124964N478   000000041724Y24N  N  0517        0000030000010000042015                    0N3 0020038700010 Y80000032035    NY          180516BZ                 0 06430F60000030544
530000000AB00000001170000500107300000SR 539, CREEK            I-5 OFF RAMP      1.4 N JCT SR 542         999900001610            48465880122290920002301011119880107004657201260091012011115N000000000A16602000004000007900402001585000000007900849999H0521H0180277678N16081363684588351001585041724N  N  N              0033280006660066562014                    0N1 1000001101031 Y80078982036    NN          171024BZ                 0 09250F60000133140
530000000BG00000001310016100305300000OHOP CREEK               SR 161            4.3 N JCT SR 7           999900068721          00465235111221654300053010106190002000071992012200940000111050000000000A15204000001000209100137000171000000009100989999N0000N0000006766N0299018143N568351000171091724N  N  N              0003700000740007392014                    0N2 0000001620141 Y30113462036    NN0100121   180503BA  010016100614   2 05832F60000016758
530000000BI00000001210019500607500000S FK PALOUSE RIVER       US 195            0.3 N JCT SR 272         999900613001          004653024011721523301330101021923040000965820120017107000NNN50000000000A55204000002000017100347000695030030017102449999N0000N0000006468N1245114535N588351000695071824N  N  N              0026450005290052902014                    0N2 1000001620091 Y80126712036    NN          181009BA                 1 03041P40000169580
530000000BK00000001310020300103300000CREEK                    SR 203            3.0 N JCT SR 202         999900048281          00473622801215450100193010106194502000071772016000980000101050000000000A15702000003000009100052000158000000009100939999N0000N0000006768N2345222753N568351000158071724N  N  N              0003540000710007072014                    0N2 0000008600101 YU0112392038    NN          181009BA                 2 05932F60000014694
530000000BL00000001310020300103300000HARRIS CR                SR 203            8.1 N JCT SR 202         999900130681          00474041001215426400213010106194502000098262016000850000001050000000000A15702000003000009100061000177000000009100929999N0000N0000006778N2399227263N566351000177071724N  N  N              0003480000700006962014                    0N2 0000008600101 YU0153882038    NN          181009BA                 2 06192F60000016284
530000000CN00000001310050800404100000KEARNEY CREEK            SR 508            16.0 E JCT I-5           999900257010            463638281223454200233010107193702000014042016000820000111150000000000A15702000002000006600049000098000000006600699999N0000N0000007767N2426229962N568351000098031724N  N  N              0001860000370003712014                    0N2 0000008600080 YU0019222038    NN          181009BA                 2 07772F60000006762
530000000CO00000001310050800404100000MILL CREEK               SR 508            18.3 E JCT I-5           999900294830            463616531223203110563010107193702000010582016000730000111150000000000A15702000002000006600049000098000000006600669999N0000N0000006767N2417229062N548351000098031724N  N  N              0001660000330003332014                    0N2 0000008600160 YU0014492038    NN          181009BA                 2 07312F60000006468
530000000CP00000001310050700404100000CHINA CRK                SR 507 & PEARL ST 1.5 N JCT I-5            999900047960            464318001225706000023010116191802000062912016001220450NNNN50000000000A55104000001000012200085000091030030012201839999N0000N0000006568N1544132757N568351000091091724N  N  N              0002520000500005042014                    0N1 0000001600040 Y50086162038    NN          181009BZ                 0 08830F50000016653
530000000CQ00000001310050800404100000ALDER CREEK              SR 508            22.7 E JCT I-5           999900364520            463615401222703900563010107193702000010582016000640000111150000000000A15702000003000005900088000268000000006000649999N0000N0000006666N2417229962N588351000268021824N  N  N              0004050000810008102014                    0N2 0000008600160 Y30014492038    NNQ100015   181009BA  Q10050800111   2 07602F60000017152
530000000DB00000001310090300503700000ROSLYN CR                SR 903            2.3 N JCT SR 970         999900036690            471147801205640700133010107193802000049942016000850000000050000000000A55101000001000007200064000076014000007200769999N0000N0000006658N8305823352N588351000076081724N  N  N              0001500000300003002014                    0N2 0000001620080 YU0069292038    NN          181130BA                 2 05252F50000005776
530000000EE00000001310011200300900000CREEK                    SR 112            16.4 E MAKAH RES         999900265540            481512001241558201593010107190002000020362016000850000000050000000000A55702000003000007600058000180012002007600909999N0000N0000007778N2454230872N588351000180081824N  N  N              0003540000710007082014                    0N2 0000008600250 YU0026812038    NN          181130BA                 2 05732G70000016200
530000000EI00000001310016500305300000WILKESON CREEK           SR 165            16.4 N RAINIER PARK      999900263610            470600401220244300033010116191802000016632016200850000001050000000000A15111000001000006100122000137000000006100669999N0000N000000N665N1898159962N588351000137051824N  N  N              0002700000540005402014                    0N2 000000NNNN050 Y30027072038    NNL240014   181009BA  L24999942614   2 07872F60000009042
530000000EP00000001310026100600100000MC ELROY COULEE          SR 261            21.8 N JCT SR 26         999900928910            470244901182106900133010107190002000003262016000850000111150000000000A15302000002000007300043000098002002007300779999N0000N0000006648N0227013645N568351000098061724N  N  N              0001920000380003842014                    0N2 0000001620280 Y30004072038    NN          181009BA                 1 03051P40000007546
530000000ES00000001210039500601900000EAST DEER CR             US 395            17.1 N JCT SR 20         999904167881          00485054001181200000263010102190002000007062016200760290101150000000000A15402101002000207800046000152000000007801299999N0000N0000007665N1490129064N568351000152041724N  N  N              0002700000540005402014                    0N2 1219321600111 Y30010092038    NN          181009BZ                 0 08900F60000019608
530000000ET00000001210039500601900000LITTLE BOULDER CR        US 395            21.8 N JCT SR 20         999904244321          00485440501181219200063010102190002000004922016200760000111150000000000A15402101002000207700052000174000000007700799999N0000N0000007666N1481129064N568351000174041724N  N  N              0003080000620006162014                    0N2 1219321600191 Y30007032038    NN          181009BZ                 0 08980F60000013746
530000000FE00000001310029000606300000SPOKANE RIVER            SR 290            0.1 E JCT OLD SR 290 SP  999900013201          00473942701172340700033010114191002000117232016001680250011130000000000A55211000005000012200305001564011011012201669999N0000N0000004357N1472128135N588351001564081812N  Y60N      0817    0058480011700116962014                    0N2 1000001600081 Y30160562038    NNQ240014   181130BA  Q24PM0300114   1 03931P30000259624
530000000FS00000001410045000103335415MILL CR                  W VALLEY HWY      4.6 N JCT SR 18          999900000010            472204521221457340103040416191502000241002018000910000111050000000000A15119000001000007900091000107000000008000869999N0000N000000NNN558444836652N588311000137051824N  N  N              0003500002500007502010                    0N2 000000NNNN040 Y20401002038    NN          181009BA                 2 05502F50000009202
530000000FV00000001310050000401100000HJF CANAL                SR 500            13.8 E JCT SR 503        999900304490            453523201222411000163010116191502000075282016001130310000050000000000A55104000001000011300070000076018015011301529999N0000N0000006768N1354120954N588351000076041824N  N  N              0001950000390003902014                    0N2 0019371620080 Y80122552038    NN          181009BZ                 0 07440F60000011552
530000000FX00000001417750000106100000PILCHUCK CR              OLD SR9           0.2 NE JCT SR9           999900000010            481554401220955600023020209191601000000802016000760000111120000000000A15219000002000005100168000366000000005200559999N0000N000000NNN651544132753N563351000366081824N  N  N              0006480001300012962014                    0N3 000000NNNN050 Y30001502038    NNQ100014   181009BA  Q10000902914   2 07722F50000020130
530000000FZ00000001310012500507100000TOUCHET RIVER            SR 125            17.3 N JCT US 12         999900376260            461740401182024600143010107191602000004312016000790000111150000000000A15211000002000005800168000357000000005900669999N0000N000000N555N0299018152N588351000357031824N  N  N              0006550001310013102014                    0N2 000000NNNN120 Y50004912038    NN09N0114   181009BA  09N970103214   2 05182F50000023562
530000000GJ00000001310000900105700000W FK NOOKACHAMPS CR      SR 9              0.1 N JCT SR 538         999900801780            482550401221551300133010107192002000064232016300880000111150000000000A15111000002000006100335000741000000006100699999N0000N000000N668N1562133662N588351000741041724N  N  N              0015060003010030132014                    0N2 010000NNNN050 Y90107302038    NN          181009BA                 2 07602F60000051129
530000000GP00000001310002700606300000COVE CREEK               SR 27             2.1 N WHITMAN CO         999900886910            4716435011709114000630101071920020000076520160007302000NNN50000000000A15111000001000007200073000079000000007200819999N0000N000000N578N1544132754N568351000079071824N  N  N              0001350000270002702014                    0N2 000000NNNN150 Y50010472038    NN          181009BZ                 0 07170F50000006399
530000000GR00000001210019500607500000SPRING FLAT CREEK        US 195            15.1 N JCT SR 270        999900602861          004652286011721540001330101021920040000952420160017105300NNN50000000000A55104000001000017100113000113040034017102449999N0000N0000006678N1254114535N588351000113071824N  N  N              0004290000860008582014                    0N2 1000001620131 Y80108632038    NN          181009BA                 2 06152F60000027572
530000000GX00000001310012500507100000DRY CREEK                SR 125            6.2 N JCT US 12          999900197950            460859701182221400143010107192102000004672016000640000111150000000000A15111000001000005900122000128000000005900699999N0000N000000N655N0299018152N588351000128031824N  N  N              0001930000390003862014                    0N2 000000NNNN170 Y30005322038    NN          181009BA                 2 05172F50000008832
530000000GY00000001310012500507100000SPRING VALLEY BRANCH     SR 125            9.4 N JCT US 12          999900249290            461135671182259240143010107192102000004672016000790340111150000000000A15111000001000005700091000091000000005700719999N0000N000000N776N0299018152N588351000091031824N  N  N              0001680000340003362014                    0N2 000000NNNN170 Y30005322038    NN          181009BA                 2 06192G70000006461
530000000HA00000001310070600305300000COPPER CR                SR 706            11.2 E JCT SR 7          999900179601          00464519101215741200433010106192202000014662016400790000111150000000000A15104000001000007600067000079000000007600829999N0000N0000006666N8324824964N568351000079041724N  N  N              0001460000290002912014                    0N2 0000001600041 Y30023862038    NN          181009BZ                 0 07350F60000006478
530000000HD00000001340015500204700000OKANOGAN RIVER           SR 155 SPUR       0.3 W JCT US 97          999901293911          00482437901193133200163010116192302000064782016000910000000030000000000A55111000005000006100305001250015010006100999999N0000N0000006666N1463128162N588351001250031724N  N  N              0026240005250052482014                    0N2 0100001100050 Y70081332038    NN          181009BA                 2 06862F60000123750
530000000HE00000001415035900401199011SALMON CR                Caples Road       5.4 N JCT SR 503         999900000010            454433401223246900103020206192302000016402014000730000001040000000000A15119000001000007200152000244000000007200799999N0000N000000NNN543898365343N566311000305071724N  N  N              0004500001500015202013                    0N2 000000N600110 Y30047332037    NN          180503BA                 1 05031P40000019276
530000000HH00000001310051300103300000MONTLAKE CUT             SR 513            0.2 N JCT SR 520         053600003061          00473848901221816600053010114192404000660572016002830000000011009100457A55316204001000612200475001049030030012201830536N0000N0000005668N1336120052N588351001049041824Y24N  Y240418    04180065360013070130722014                    0N2 10199939000311Y81034522038    NNQ100014   181009BA  Q10051300209   2 04982F50000191967
530000000HI00000001510001500502355120PATAHA CR                15TH STREET       0.1 E JCT US 12          999900000010            462820421173524470103040407192502000006802014000730000100050000000000A55302000001000006100098000107015015006100989999N0000N0000007754N1608136353N578321000137081824N  N  N              0006840001370013682014                    0N2 0000001600050 Y50007432036    NN          181130BA                 2 06752F50000010486
530000000HN00000001310002100601900000SAN POIL RIVER           SR 21             41.9 N LINCOLN CO        999902389070            482900001184415600973010107192702000005782016000790300111150000000000A15104000002000006100091000186000000006100729999N0000N0000007768N8499838663N538351000186081824N  N  N              0003420000680006832014                    0N2 0100001600171 Y70008262038    NNQ240014   181130BA  Q24002101314   2 07272F60000013392
530000000HV00000001310050700404100000SKOOKUMCHUCK RIVER       SR 507            2.4 N JCT I-5            044700037980            464349521225713290063010116192802000089282016400980000000030000000000P55310101001000206100454000567015015006100620447N0000N0000006456N1372122742N568351000567061724Y24N  N  0617        0012650002530025302014                    0N2 0000001100050 Y50122282038    NN          181009BA                 1 03691P40000035154
530000000HX00000001310050900103300000THAMES CREEK/PED TRAIL   SR 509            11.0 N JCT I-705         999900126330            471904691222451980103010116192902000037432016000910000111150000000000A55303000011000008500219001698000017008501079999N0000N0000007558N1354120954N588351001698071824Y24N  N  0718        0035650007130071302014                    0N2 0019961101011 Y90060932038    NN1180114   181009BZ  118100600314   0 05590F50000181686
530000000HY00000001310050900103300000JOES CREEK               SR 509            2.7 N PIERCE CO          999900159810            471936001222237090103010116192902000034992016600980000111050000000000A55403000005000008500219000805000018008501109999N0000N0000007668N1490129964N588351000805071824Y24N  N  0718        0017950003590035902014                    0N2 0019961101011 Y80054792038    NN1180117   181009BZ  118100600314   0 07960F60000088550
530000000IC00000001310009900103300000DEXTER WAY N             SR 99             7.4 N JCT SR 509         999900544921          0047382046122204394002301011219300601067173201600244325010005N000000000A51104000001000011600107000107037037023203239999H0432H020003767NN145412726245N8351000107031824N  N  N              0005740001150011482014                    0N2 1000001600031 YN1052002038    NN          181009BA                 2 07552F60000034561
530000000II00000001310050000401100000LACAMAS LAKE             SR 500            12.6 E JCT SR 503        999900285980            453615801222425700163010116193002000105522016000730000101150000000000A55204000003000007300098000232021000007300999999N0000N0000006767N1626138162N568351000232101724N  N  N              0003950000790007902014                    0N2 0000001600080 Y30171782038    NN          181009BA                 2 07082F60000022968
530000000IJ00000001310050800404100000S FK NEWAUKUM RIVER      SR 508            13.7 E JCT I-5           999900219680            463641931223744230233010107193002000014042016000790000111120000000000E15310702001000703400274000600000000006100639999N0000N0000004256N0000000022N066351000600091812N  N  N              0011030002210022062014                    0N2T0000001600080 Y30019222038    NN          181130BA                 1 00401P20000037800
530000000IR00000001310016900103300000GREEN R                  SR 169            5.3 N JCT SR 164         999900083691          00471634941215930400183010102193202000099682016001160000101130000000000A55309104004000207300448002097010000007300859999N0000N0000007667N1571133662N588351002097051724Y24N  N  0517        0055040011010110082014                    0N2 0000001320071 Y50156102038    NNQ100014   181009BA  Q10016901414   2 07022F60000178245
530000000IU00000001310050300401100000LEWIS RIVER              SR 503            19.8 N JCT SR 502        044200447881          00455737111222220791093010106193201000011332016100640000001110000000000P15313302001000505100914001396000000005100610439N0000N0000007658N1163110032N083351001396031724Y24Y60Y240317071803170021070004210042142014                    0N3 0219578600051 Y80018442038    NN          181009BA                 2 01852F50000085156
530000000JE00000001510032500103317835SALTWATER STATE PARK     MARINE VIEW DR    2.6 MI NW OF JCT SR99    999900000010            472226841221914150053040416193402020025432013000980000101050000000000A56203000008000007300305001737000014007300959999H2743H0180006668N85158399624588351001737031724N  N  N              0038760007750077522014                    0N2 0020151300010 Y80030002033    NNL1C0015   171024BZ  L1C105100747   0 07722F60000165015
530000000JG00000001310002000102900000STATE PARK ROAD/TRAIL    SR 20             25.2 E JCT SR 525        999900669171          0048240710122384070159301010219350200018045201600082000000001N000000000A13101000001000008100064000064000002008000909999N0000N000000777NN0408024562N5N8351000064051824N  N  N              0001220000240002442014                    3N2 1000001600051 YN0267182038    NN          181009BA                 2*05082G70000005760
530000000JJ00000001310015500201700000COLUMBIA RIVER           SR 155            0.2 N GRANT CO           044700454801          00475755411185856370023010106193502000048852016201220001000011009101692A55410204003000406101676003319012012006200670447N0000N0000006578N1272116342N586351003319101724Y24N  N  1017        0091480018300182952014                    0N2 00000036000911Y80063502038    NN          181009BA                 2 04682F50000222373
530000000JP00000001310016200305300000SPIKETON CREEK           SR 162            17.3 E JCT SR 410        999900316080            470831401220331700023010116193602000056412016200730230100050000000000A15206000006000006600183000689000000006600679999N0000N0000003568N1308119042N588351000689041824N  N  N              0011750002350023502014                    0N2 0000001600070 Y50091832038    NNL240014   181009BA  L24016201814   1 04671P30000046163
530000000JQ00000001310030200305300000HENDERSON BAY            SR 302            10.6 E MASON CO          999900252511          00472301101223745400613010114193602000217742016200790000001010000000000A55205000005000006100579001676000011006100679999N0000N0000006648N8298823042N586351001676061824N  Y48N      1016    0030800006160061602014                    0N2 1019661100041 Y50354482038    NN          181009BA                 1 02961P40000112292
530000000JV00000001310050800404100000CREEK                    SR 508            24.1 E JCT I-5           999900387530            463530461222546000563010107193702000010582016000610370111150000000000A15702000001000006000073000079000000006000629999N0000N0000006656N2463232752N558351000079101724N  N  N              0001140000230002292014                    0N2 0000008600160 Y50014492038    NNL1C0015   181009BA  L1C050800611   2 06462F50000004898
530000000KH00000001310041000507700000MILK CREEK               SR 410            23.4 E PIERCE CO         999901492830            465857401210537801593010107193902000005572016200880000101150000000000A15701000003000008900049000116000000008900999999N0000N0000006667N2499236365N588351000116091724N  N  N              0002360000470004712014                    0N2 0200008600091 Y30007822038    NN          181009BZ                 0 08980F60000011484
530000000KN00000001110009000103300000LAKE WASHINGTON          I-90              1.9 E JCT I-5            999900068881          00473524001221700000023010111194004000654622016601580000111120000000000A15100000001000015819998019998000000017101839999N0000N0000005738N1490129034N588351019998051724N  Y24Y12    021711170708590141721417182014                    1R1 10199213010311Y81025202038    NN0540117   181009BC  054090138814   1 03601P30003659634
530000000KO00000001110009000103300000LAKE WASHINGTON          EB I-90           2.3 E JCT I-5            063000068881          00473523901221714300023010111194004020660032012602040001111111008800594A16312020001000715800655003243000000015801680589H1280H0210007578N14901290544588351003243051724Y24Y60N  05170518    0146830029370293662014                    1R1 10199213010611Y51103572036    NN          181009BZ                 0 05100F50000544824
530000000KP00000001110009000103300000LAKE WASHINGTON          EB I-90           3.8 E JCT I-5            063000068881          00473521331221520780023010111194004020654622016601580001111111008800594A16312020001000315800692002713000000015801680630H0638H0333047778N14901290746588351002713051724Y24Y60N  05170518    0096120019220192242014                    1R1 10199213010311Y51025202038    NN          181009BZ                 0 06610G70000455784
530000000LM00000001210001200302700000WISHKAH RIVER            US 12 / HERON ST  0.1 E JCT US 101         999900001291          00465833501234843400023010114194902000138762016400850000100021003000229A55417303002000108500283000716015000008500909999N0000N0000003545N1580135443N586351000716031724Y24Y60Y240317071603170014100002820028202014                    2R1 10000039000612Y50162482038    NNL050014   181009BA  L05001215214   1 04381P30000064440
530000000LN00000001310002800202500000WINCHESTER WASTEWAY      SR 28             8.4 E JCT SR 281         999900613321          00471457581194105780113010106194902000050572016501160000101150000000000A15104000001000011000107000113000000011001229999N0000N0000007778N1499129974N588351000113021824N  N  N              0002960000590005922014                    0N2 0000001600111 Y80134302038    NN          181009BZ                 0 09400G70000013786
530000000LP00000001310017400202500000COLUMBIA BASIN CANAL     SR 174            1.2 E DOUGLAS CO         999900336031          00475645301190015600393010106194902000015172016501100000011050000000000A55204000004000007900241000692014002007901019999N0000N0000007778N1499129074N588351000692101724N  N  N              0017250003450034502014                    0N2 0000001600141 Y80040292038    NN          181009BZ                 0 07640G70000069892
530000000LR00000001310001700201700000COLUMBIA RIVER           SR 17             0.1 N JCT SR 173         999902187421          00475959041193921100563017006195002000025122016501220000101011012200914A55409402003000407900914003505007007007901029999N0000N0000007668N1463128163N586351003505081724Y24Y60N  08170914    0096600019320193202014                    0N2 01000016001411Y80032652038    NNQ240017   181009BA  Q24PM0100114   2 06812F60000357510
530000000LV00000001310002800202500000WEST CANAL               SR 28             0.9 E JCT SR 281         999900493101          00471402501195006100063010106195002000072732016501250171011050000000000A15204000003000012500128000372000000013601459999N0000N0000007777N1508129979N588351000372021724N  N  N              0010490002100020982014                    0N2 0019881620131 Y50193162038    NN          181009BZ                 0 09560G70000053940
530000000LX00000001210009700204700000OKANOGAN RIVER           US 97             3.6 N JCT SR 173         999904249151          00480610001194237500133017002195002000048632016501100000111050000000000A15302000006000007900305001396005005007901019999N0000N0000007767N1499129963N588351001396031724N  Y60N      0817    0034810006960069622014                    0N2 1100001620171 Y30061062038    NN          181009BA                 2 07582F60000140996
530000000LZ00000001310028100202500000WEST CANAL               SR 281            9.9 N JCT I-90           999900160611          00471330001195112000063010114195002000080732016501280000011050000000000A15204000003000012300122000329000000012301339999N0000N0000007778N1571134575N588351000329021724N  N  N              0009500001900019012014                    0N2 1019881620221 Y70214412038    NN          181009BZ                 0 09570G70000043757
530000000MA00000001515220000103307380STATE ROUTE 522          102ND AVE         0.2 E JCT SR 527         999900000010            474533001221212000023040417195002040091142014300820000100050000000000A56302104003000306700137000753023000006701019999H0478H0030004558N82408185423588351000753081824N  Y60N      0515    0014320002860028652014                    0N2 0000001309050 Y50135432034    NN1180117   181130BA  118245200214   1 04271P40000076053
530000000MB00000001210010100404900000SOUTH NEMAH RIVER        US 101            1.7 N JCT SR 4           999900492781          00462659201235220901593010102195102000027192016301100000101050000000000A15702000002000011000058000122000000011001109999N0000N0000008868N2381225465N538351000122081824N  N  N              0003040000610006082014                    2N2 1000008600111 YU0034432038    NN0100117   181009BA  010010110714   2 06802F60000013420
530000000MD00000001310002800202500000IRRIGATION CANAL         SR 28             4.5 E DOUGLAS CO         999900427441          00471356801195517700103010102195202000094322016501160420111150000000000A15104000001000011000165000174000000011001229999N0000N0000007767N8243818844N568351000174021824N  N  N              0004560000910009122014                    0N2 1000001620161 Y70250502038    NN0100112   181009BL* 010002801112   0 07390F60000021228
530000000MF00000001210000200200700000NASON CR                 US 2              16.3 E KING CO           999901309361          00474608801204810801593010102195302000048962016001100300010050000000000A15204000003000009800244000518000000009801079999N0000N0000007777N1490129974N588351000518081824N  N  N              0012920002580025842014                    0N2 1200001620071 Y50064762038    NN3150212   181130BL* 315000210312   0 06970G70000055426
530000000MH00000001210001200507100000ABANDONED RR GRADE       US 12             11.5 E JCT SR 124        999904936821          0046040580118542890047301010219530200008167201600107045011105N000000000A50302000003000008500146000442010010008501089999N0000N000000665NN1771153552N5N8351000442041724N  N  N              0010730002150021462014                    0N2 1000001100251 YN0093152038    NN          181009BA                 2 05502F50000047736
530000000MI00000001210001200507100000WALLA WALLA RIVER        US 12             12.0 E JCT SR 124        999904945681          00460338201185433800473010102195302000081672016001340000111050000000000A55302000003000008500375001125008008008501109999N0000N0000006668N1254115434N588351001125031824N  Y60N      0915    0033950006790067902014                    0N2 1000001600251 Y50093152038    NNQ050014   181009BA  Q05001214014   2 04122F60000123750
530000000MM00000001310050300401100000CHELATCHIE CREEK         SR 503            12.7 N JCT SR 502        999900334101          00455440401222648100063010106195302000036912016500910000111050000000000A15302000001000009100085000094001000009100949999N0000N0000008778N1898165374N568351000094081824N  N  N              0001980000400003972014                    0N2 0200001600061 Y30060092038    NN          181009BZ                 0 08170G70000008836
530000000MN00000001310050300401100000NO. BRANCH CHELATCHIE CR SR 503            13.5 N JCT SR 502        999900347301          00455501501222606000063010106195302000008172016500730000111050000000000A15101000001000007900064000073001001007900859999N0000N0000007766N1526131765N558351000073071724N  N  N              0001250000250002502014                    0N2 0200001600061 Y30013302038    NN          181009BZ                 0 08630F60000006205
530000000MP00000001310020600606300000DEADMAN CR NO 1          SR 206            6.7 E JCT US 2           999900107990            474808101171309100143010107195402000015312016000790300110050000000000A15102000001000008100088000098000000008100889999N0000N0000007667N1336120054N588351000098081824N  N  N              0001790000360003582014                    0N2 0000002620060 Y50020962038    NN          181130BZ                 0 07030F60000008624
530000000MQ00000001310050300401100000CHELATCHIE CREEK         SR 503            16.4 N JCT SR 502        999900393481          00455527701222258400113010106195402000022942016500730000111050000000000A15101000001000007900055000064001001007900849999N0000N0000008876N1463128173N588351000064081824N  N  N              0001090000220002182014                    0N2 0200001600081 Y30037342038    NN          181009BA                 2 08042G70000005376
530000000MT00000001310002000107300000GORGE CREEK              SR 20             7.0 E SKAGIT CO          999901986571          00484202401211235201593010106195502000016512016500760000011130000000000A55311000003000006700549000753015015006701139999N0000N0000006678N1844149963N583351000753061824Y24N  N  0618        0013340002670026682014                    0N2 0000003900131 Y90026532038    NNQ100014   181009BA  Q10002012511   2 05702F60000085089
530000000MV00000001310054200107300000MAPLE CREEK              SR 542            3.4 E JCT SR 547         999900421330            485516601220419271593010107190002000021602016300790130111150000000000A15302000001000007300098000104000000007300799999N0000N0000006667N1544132762N538351000104061824N  N  N              0001900000380003812014                    0N2 0219551600071 Y50034712038    NNH240014   181009BA  H24054202314   2 05702F60000008216
530000000MW00000001310026000502100000IRRIGATION CANAL         SR 260            3.1 E JCT SR 17          999900049410            463949101185631300063010107195602000021812016301190000111050000000000A15101000001000012000094000094000000012001259999N0000N0000007777N0408024565N588351000094021724N  N  N              0002540000510005082014                    0N2 0000001600190 YU0029872038    NN          181009BZ                 0 09110G70000011750
530000000NB00000001210010100404900000SOUTH NEMAH RIVER        US 101            3.6 N JCT SR 4           999900523361          00462830701235305901593010102195702000027192016301100230101050000000000A15402000003000008800113000146000000008800929999N0000N0000006676N2317220954N568351000146081724N  N  N              0003650000730007302014                    2N2 1000008600111 YU0034432038    NN0100117   181009BZ  010010110714   0 04830F60000013432
530000000NC00000001310010900302700000WRECK CREEK              SR 109            19.1 N JCT SR 115        999900566010            471704001241401800243010107195702000012712016000850000111150000000000A15201000004000007900116000418005005007900909999N0000N0000007767N1317119054N588351000418051724N  N  N              0008220001640016442014                    0N2 0100001100051 Y30014882038    NN          181130BZ                 0 06760F60000037620
530000000NJ00000001220009700200700000ENTIAT RIVER             US 97ALT          14.9 N JCT US 2          999903445931          00473939201201330000533010106195902000068512016301220000101050000000000A15205000003000008700503001237000000008700969999N0000N0000007678N1408124564N588351001237071824N  Y60N      0916    0034100006820068212014                    0N2 0000001620101 Y80090632038    NN0100117   181009BZ  010097800114   0 05970F60000118752
530000000NP00000001310020600606300000DEADMAN CR NO 4          SR 206            11.5 E JCT US 2          999900184270            475034501171020600103010107196002000004422016300980350111150000000000A15122000001000009800076000079000000009801049999N0000N0000007678N1526130866N566351000079061724N  N  N              0001770000350003542014                    0N2 0019919620060 Y50006052038    NN          181009BZ                 0 09910F60000008216
530000000NQ00000001510801700606367005SR 290 (TRENT AVE)       SULLIVAN RD       10.5 E JCT US 2          99990007162100000008010047414405117114884011304041419600404011200201450152000000005N000000000A51504000002000009100122000244015015015201899999H0475H027006755NN143512635345N8311000274101724N  N  N              0022320004460044642014                    0N2 1019721600050 YN0161282036    NN          181009BA                 2 04992F50000046116
530000000NU00000001310050500404100000CEDAR CREEK              SR 505            10.7 E JCT I-5           999900218710            462547901224233900683010107196202000005832016000850180111150000000000A15302000001000007300152000158000000007300789999N0000N0000007768N1771146364N588351000158111624N  N  N              0003120000620006242014                    0N2 0000001620220 YU0007982038    NN          181009BZ                 0 08150F60000012324
530000000NV00000001310051300103300000SR 520                   SR 513 - MONTLAKE JCT SR 520               999900000011          0047383829122181512005301011419620607035553201650256200100004N000000000A51205000002000025600268000463030030023203939999H0444H024304667NN189815446435N8351000463041824N  N  N              0026140005230052292014                    0N2 1000001500041 YN0556792038    NN          181009BA                 2 07642F60000181959
530000000NW00000001510000000103300000SR 520                   24TH AVE          0.1 E JCT SR 513         999900000010            47383919122180732002301011919620208004752200950128000011115N000000000A51205000002000007900277000515000000007901339999H0465H080006767NN185314996335N6351000515081724N  N  N              0014870002970029742014                    0N2 0000001100030 YN0060352036    NN          180503BA                 2 07642F60000068495
530000000OC00000001170009000103300000I-5/AIRPORT WAY RAMP     I-90 E-S RAMP     JCT I-5                  999900000010            47353320122192700003301011119650110009815201260070000111115N000000000A61606206002000507500475001951000000007500849999H0823H024018777NN189814177765N8351001951041724N  N  N              0032000006400064002014                    0N1 1019911300051 YN0164112036    NN04M0217   171024BZ  04M999923214   0 09860G70000163884
530000000OD00000001310001400403900000ALDER CREEK              SR 14             47.6 E JCT US 97         999902398890            455009001195546000663010106196502040011542016501160000111150000000000A16502000003000008500223000664004004008501029999H0391H0200004778N16981417753588351000664051824N  N  N              0017440003490034882014                    0N2 0000001600551 Y50014362038    NN          181009BA                 1 07461P40000067728
530000000OE00000001310001400500500000DEAD CANYON              SR 14             4.8 E KLICKITAT CO       999902496410            455210601194928701593010106196502020015342016501070000111150000000000A16502000003000008500186000515005005008501019999H0457H0060006778N16801399753588351000515051824N  N  N              0012500002500025012014                    0N2 0000001100481 Y80020642038    NN          181009BA                 2 06312F60000052015
530000000OH00000001310050100401100000GEE CREEK                SR 501            2.2 S JCT I-5            999900284210            454855601224352600053010107196502000057922016000910000001050000000000P55303000001000007300192000204011000007300879999N0000N0000007665N1272116342N588351000204051824Y24N  N  0518        0004290000860008582014                    0N2 0000001620060 YU0094292038    NN          181009BA                 2 05332F60000017748
530000000OM00000001310002400200100000IRRIGATION CANAL         SR 24             3.1 E GRANT CO           999901096770            464416801191825801483010107196702000019992016501160300101050000000000A15104000002000011600098000201002002011601269999N0000N0000007778N1717141776N588351000201021548N  N  N              0005280001060010562014                    0N2 0000001600261 Y80024992038    NN          181009BZ                 0 08130G70000025326
530000000ON00000001310026100501300000TUCANNON RIVER           SR 261            10.3 N JCT US 12         999900165120            463231301180938200193010107196702000004562016500730300111150000000000A15502000003000007900204000643005005007900949999N0000N0000008778N1617136375N588351000643071724N  N  N              0010970002190021942014                    0N2 0000001100200 Y80005062038    NNL1CE047   181009BZ  L1C001221847   0 09410G70000060442
530000000OQ00000001310012700502300000DEADMAN CREEK            SR 127            9.1 N JCT US 12          999900146931          00463659681174732030243010102196902000007742016501220000101150000000000A15602000003000012200183000561002002012201329999N0000N0000007778N1508129978N588351000561071824N  Y60N      0818    0015460003090030912014                    0N2 1000001100331 Y80008232038    NN          181130BZ                 0 09780G70000074052
530000000OR00000001310012700607500000CAMAS PRAIRIE RR         SR 127            0.4 N GARFIELD CO        999900166571          0046375550117481880069301010219690200000891201650122045011115N000000000A12602000003000012200256000783002002012201329999R0737R125000777NN166213997895N8351000783031848N  N  N              0021590004320043182014                    0N2 1000001620331 YN0010162038    NN          181009BZ                 0 09690G70000103356
530000000OT00000001310016400103300000R ST                     SR 164            1.1 E JCT SR 18          999900023980            471731001221230200023010114197004020324722016601340200001N5N000000000A51505000001000014600488000610015015014601839999H0587H030000777NN164413817265N8351000610061824N  N  N              0018400003680036802014                    0N2 0000001600041 YN0508542038    NN          181009BA                 2 07612G70000111630
530000000OW00000001510090800103357535SAMMAMISH R              Redmond Way       2.5 E JCT I-405          999900070011042000701000474024201220757100023040414197204000280002015501582000000050000000000A55206000003000015800244000600018018015801989999N0000N0000007677N1499327264N588311000631051724N  N  N              0051340010270102672014                    0N2 1000001600020 Y30360002035    NNQ240021   180503BZ  Q24PM0300114   0 07270F60000118800
530000000PA00000001310016200305300000PUYALLUP RIVER           SR 162            0.5 E JCT SR 410         999900008210            471107291221345600063010116197302000198792016601100000111150000000000A55602000002000007900344000707006012007900989999N0000N0000007766N1435125463N588351000707081724N  N  N              0017630003530035262014                    0N2 0000001620050 Y50323632038    NN          181009BA                 2 06712F60000069286
530000000PB00000001410000000305300000SR 512                   STEELE ST         0.6 E JCT I-5            999900000971512LX000620047093653122280362000301011419750208012398201660085015000015N000000000A51201000002000007900207000421012010007901039999H0508H020017777NN187115447235N6351000421071748N  N  N              0008280001660016562014                    0L2 1000001300050 YN0201842038    NN          181009BA                 2 07502G70000043363
530000000PC00000001310019700403900000COLUMBIA R, SP & S RY    US 197            OREGON LINE              048000006761000000019700453637691210822210693010114195402000066002014400730000000011023200076A17410402005002507301756010196012000007300980480R1646R0370374567N52995181425586351010196081624Y24Y60N  11160916    01739400347903478820144105006635Q004 000000N2 10000016200713Y50079002033    NN          171024BA                 1 03241P40000999208
530000000PD00000001110008200500500000COLUMBIA RIVER           I-82              1.0 E JCT SR 14          048502130131          00455605801191949200023010101195502000108502016601160000101031025901021A15410402005001508401829010302000000008400920485N0000N0000003578N1571134552N588351010302061724Y24Y60N  06170913    02704000540805408020144105002230A070 000391R1 10199013011911Y80146042038    NN0420112   181009BA  042082305112   1 05321P30000947784
530000000PF00000001310026100501300000UP RR                    SR 261            12.7 N JCT US 12         999900201330            46335028118111020019301010719670200000456201660070000011115N000000000A12502000003000007900171000518005005008200969999R0782R063000677NN181614907595N8351000518031724N  N  N              0008500001700017002014                    0N2 0000001100200 YN0005062038    NN          181009BZ                 0 09560F60000049728
530000000PG00000001310054700107300000SAAR CREEK               SR 547            9.0 N JCT SR 542         999900143070            485854001221418000453010107197002000017342016500700000101150000000000A15122000001000007500094000098002002007500779999N0000N0000007778N1354120954N586351000098081724N  N  N              0001600000320003202014                    0N2 0000001600070 YU0027862038    NNL240014   181009BZ  L24054700714   0 06490G70000007546
530000000PH00000001810008400403900000COLUMBIA RIVER           E MARINA WAY      HOOD RIVER               999901039961000000000000454305651212941650641323206192402000133002014200670000000011041100768P15315309019001006100799013466000000005700590478N0000N0000005667N1327120052N586351013466081524Y24Y36N  08150316    02120600424104241320144109906645 002C064620N2 00000039880504Y401788920370165NN          171024BA                 2 04982F50000794494
530000000PR00000001110000500401174060COLUMBIA R   INTERSTATE  I-5               OREGON LINE              048300000011          00453704941224030990023010111191603060642862010201280000111111041500802A56315310001001111000850010784000016011601380472H0444H0090275557N52275136323588351010784071624Y24Y36N  07160915    03113400622706226920144105001377A001 308381R1 10195813011511Y307297620300043NNQ100014   181009BA  Q10005125214   2 01852F50001488192
530000000QC00000001510000000103300000SR 167 & SPRINGBROOK CK  S 212TH ST        1.8 N JCT SR 516         999900000481167LX0224000472443601221317400003010114197305070310762016601770010100050000000000A16502000003000018600314000966015000018602099999H0495H1020176678N18531499635588351000966031724N  N  N              0038040007610076082014                    0N2 1019921100050 Y80486682038    NN          181009BA                 2 09302F60000201894
530000000QD00000001210010100300900000BARNES CREEK             US 101            23.8 N JCT SR 113        999903663511          00480317001234738400803010102198602000026942016500940100000050000000000A15502000001000009600238000256000000009601089999N0000N0000007776N1580129974N588351000256031724N  N  N              0005540001110011092014                    0N2 1000001101131 Y80035482038    NN          181009BZ                 0 08150G70000027648
530000000QE00000001310010400106100000PUGET SOUND @ EDMONDS    SR 104            0.1 W JCT SR 524         999900393481          00474847031222303240691010114195302000058702010201830000NNNN50000000000A15702000011000006400058000640012012006401559999N0000N0000007668N2272219042N588351000640091812N  Y48N      1116    0026040005210052082014                    0N2 1019958600081 Y50086882034    NN          181130BA                 2 04802F60000099200
530000000QG00000001340002000105500000BLIND BAY                FERRY TRAFFIC     BLIND BAY-SAN JUAN       999900895921020SPANACR00483503451225547231591010114197301000003082010300460000NNNN50000000000A55702000007000003000030000253000000003000349999N0000N0000007768N2200214542N588351000253091624N  Y48N      1015    0002820000560005642014                    0N1 1000008700011 Y40005322036    NN          171024BA                 2 04942F60000008602
530000000QL00000001370009900103300000WESTERN AVE              SENECA OFF RAMP   4.1 N JCT 509            999900001290            47361920122202140003301011219590205008905201650073000100002N000000000A11502000007000007300244001500005005007300909999H1311H043000676NN164413816295N3351001500031812N  N  N              0025580005120051172014                    0N1 1000001100051 YN0139462038    NN          181009BA                 2 07232F60000135000
530000000QM00000001370009900103300000CITY STREETS             RAMP TO SB SR 99  4.1 N JCT SR 509         999900000160            47361148122200622003301011219650105009912201650064000100002N000000000P11502107006000305700247001606005003005700839999H0429H017000675NN139012365445N6351001606031812N  N  N              0024240004850048482014                    0N1 1000001100051 YN0155232038    NN          181009BZ                 0 06640F50000133298
530000000QN00000001310026100501300000PATAHA CREEK             SR 261            0.2 N JCT US 12          999900003060            463043801175822700213010107197102000006012016600820150NN1050000000000A15319000001000008800064000064000000000000009999N0000N000000NNN77189818987NN563351000064071724N  N  N              0001220000240002442014                    0N2 000000NNNN200 Y80006672038    NN          181009BA                 2*09542G70000005248
530000000QP00000001419000000607599075UNNAMED DRAINAGE         WAWAWAI/9000      30.78 MI SW SR 195       999900000010            462706001171220101133020207197302000002682015000980300111150000000000A15504000001000009800241000247000000009801089999N0000N0000007778N8434830577N583341000247121624N  N  N              0005510001100011022014                    0N2 0000001100220 Y80002732033    NN          181009BA                 2 09242G70000026676
530000000QQ0000000131005000040110000015TH ST                  SR 500            0.4 E JCT I-5            999900006121          0045390200122392160003301011219840202017190201660116000011115N000000000A11205000003000011600287000677000000011601259999H0734H044000677NN183414907695N8351000677101724N  N  N              0017760003550035522014                    0L1 1000001101051 YN0279852038    NN          181009BZ                 0 09760F60000084625
530000000QR00000001310002100600100000INTERMITTENT STREAM      SR 21             2.9 N FRANKLIN CO        999900168180            464639101183250600193010107198102000001412016400980000111150000000000A15522000001000009100128000128000000009100989999N0000N0000007778N1599135476N568351000128021824N  N  N              0002860000570005712014                    0N2 0000009100360 Y50001762038    NN          181009BZ                 0 09490G70000012544
530000000QS00000001310002000107300000THORNTON CREEK           SR 20             0.6 E SKAGIT CO          999901885021          00483855101211817101593010106198002000018672016501100150111050000000000A15502000001000011000305000305000000011001149999N0000N0000007777N8301823366N588351000305061824N  N  N              0007600001520015202014                    0N2 0000001101131 Y80030002038    NN          181009BZ                 0 07110G70000034770
530000000QV00000001310053000105700000WHITE CREEK              SR 530            7.9 N SNOHOMISH LN       999900976071          00482351101213304300163010106197402000012622016500910000001150000000000A15522000002000008500122000244000000008500919999N0000N0000007668N1417125465N588351000244081824N  N  N              0005120001020010242014                    0N2 0000009600131 Y30021082038    NN0980014   181130BZ  098040102414   0 08330F60000022204
